:020000040100F9
:1000000008140020B1010001550D0001570D000139
:10001000590D00015B0D00015D0D000100000000A5
:100020000000000000000000000000005F0D000163
:10003000610D000100000000C7010001630D000117
:10004000CB010001CB010001CB010001CB0100017C
:10005000CB010001CB010001CB010001CB0100016C
:10006000CB010001CB010001CB010001CB0100015C
:10007000CB010001CB010001CB010001CB0100014C
:10008000CB010001CB010001CB010001CB0100013C
:10009000CB010001CB010001CB010001CB0100012C
:1000A000CB010001CB010001CB010001CB0100011C
:1000B000CB010001CB010001CB010001CB0100010C
:1000C000CB010001CB010001CB010001CB010001FC
:1000D000CB010001CB010001CB010001CB010001EC
:1000E000CB010001CB010001CB010001CB010001DC
:1000F000CB010001CB010001CB010001CB010001CC
:10010000CB010001CB010001CB010001CB010001BB
:10011000CB010001CB010001CB010001CB010001AB
:10012000CB010001CB010001CB010001CB0100019B
:10013000CB010001CB010001CB010001CB0100018B
:10014000CB010001CB010001CB010001CB0100017B
:10015000CB010001CB010001CB010001CB0100016B
:10016000CB010001CB010001CB010001CB0100015B
:10017000CB010001CB010001CB010001CB0100014B
:10018000CB010001CB010001CB010001CB0100013B
:10019000CB010001CB0100010448854600F0FAFDC7
:1001A00000480047DF0C0001C046C046081400208C
:1001B0000648804706480047FEE7FEE7FEE7FEE701
:1001C000FEE7FEE7FEE7FEE7FEE7FEE79B02000133
:1001D0009901000170B56C4BD8691C042043D861AB
:1001E0006A480068C000C10E694AD0681F256D01C9
:1001F000A843891C4E1E1E2E03D249010143D16023
:1002000001E02843D060D869A043D86170BD10B523
:1002100000205D490A680124240422430A60631017
:100220000A689203D20F401C002A01D19842F7D1EC
:1002300008688003C00F00282BD0564A1068C008F9
:10024000C000042318431060486848604868DA0218
:10025000104348604868052212021043486048680D
:100260004D4A104020434D4A1043486008689201AF
:100270001043086008688001FCD548688008800049
:1002800002221043486048680007800F0228FAD114
:1002900010BD44494248086010BD10B53A48026894
:1002A00001210A43026042683F4B1A4042600268E3
:1002B0003E4B1A40026002688B049A430260426817
:1002C0003B4B1A4042600722D202C262E1229201F5
:1002D00002639F2212048260C26904042243C26145
:1002E0002B4AD3680B43D360C169A143C16129483C
:1002F0000168902211430160FFF789FF2D496010CA
:1003000088602D4880692D49884201D0FFF762FF3F
:1003100010BD10B51C4A50680C210840204B2149E3
:1003200000280DD004280DD008280DD00B6050688F
:10033000234A0006000F105C0A68C2400A6010BD24
:100340000B60F4E70B60F2E750681E4B18405368EF
:10035000012424042340040102D4800C801C02E008
:10036000800CFF38F038002B06D053689B0307D56C
:10037000154B58430860DAE7134B58430860D6E73B
:10038000074B58430860D2E70010024000180040B5
:100390000070004000200240FFFFC0F7000004088A
:1003A00000127A000000002000C0FFF8FFFFF6FEF8
:1003B000FFFF00F700ED00E080F2FF1F424B5249C3
:1003C000D60D000100003C0800093D0010B5C649EB
:1003D000884208D10121042000F049FB00210420BB
:1003E00000F045FB10BDC149884208D10121082019
:1003F00000F03DFB0021082000F039FB10BDBC4996
:10040000884208D10121102000F031FB002110208A
:1004100000F02DFB10BDB749884208D101212020F2
:1004200000F025FB0021202000F021FB10BDB24987
:100430008842FBD10121402000F019FB002140201F
:1004400000F015FB10BD10B50121084600F00FFBB0
:100450000021012000F00BFB10BDF0B50022CC788C
:1004600023071B0FE40601D58C7823430C78240660
:10047000240E1AD00468012595400E882E40AE4205
:100480000FD197000F26BE40B4431E46BE403443F2
:10049000CE78282E02D0482E02D002E0456100E03E
:1004A0000561521C082AE6D304600A88FF2A1CD979
:1004B00044680022164608360125B5400E882E40B5
:1004C000AE420ED197000F26BE40B4431E46BE403A
:1004D0003443CE78282E00D14561CE78482E00D105
:1004E0000561521C082AE5D34460F0BD0021C943D0
:1004F0000180012181700421C170704702460020F3
:1005000092680A4200D001207047806880B270472C
:1005100002460020D2680A4200D001207047C0681D
:1005200080B2704701617047016170474161704757
:10053000002A01D00161704741617047C160704776
:10054000012212040A4382618161826181698069AA
:10055000704710B5694B1A68694C2240000110437E
:100560000843186010BD6749C8617047F8B58C46EC
:10057000624B410001D51A6A08E0810001D55A6A30
:1005800004E0C10001D59A6A00E05A6881B2009186
:100590005D4907460F4003210F25840209052D06FA
:1005A000E40F260184B2B4408F4204D1AA435968B3
:1005B000A943596075E04100C7028E46002F0DDA4D
:1005C000870201030326090F8E40002F00DA36044C
:1005D000B2437146490F64D12A4362E0C1012ED56E
:1005E000470718D581010FD5A2436146002905D0E0
:1005F0005E6801210E432E435E6052E0596849084F
:100600004900294359604CE0A24359684908490010
:100610002943596045E0009904270F43B740BA4386
:100620006146002905D05E6801210E432E435E60BD
:1006300037E05968490849002943596031E04101D0
:100640002AD507070821002F15DA86010DD5A24308
:100650006646002E04D05E680E432E435E6020E0A6
:100660005E688E432E435E601BE0A2435E688E434D
:100670002E435E6015E0009F0F43B740BA436646C5
:10068000002E04D05E680E432E435E6009E05E6873
:100690008E432E435E6004E0A2437146490F00D1B1
:1006A0002A436146002900D02243410001D51A6245
:1006B000F8BD810001D55A62F8BDC00001D59A622B
:1006C000F8BD5A60F8BD10B58A07120F0F2393408A
:1006D0008C080A49A40061188C689C438C608B6864
:1006E000904003438B6010BD00080140000C0140A6
:1006F00000100140001401400018014000000140BA
:1007000080FF00000000204200003070FA480168BD
:100710000122114301604168F84A114041600168BB
:10072000F74A11400160016801229204914301607F
:100730004168F44A114041600721C902C162E121C8
:10074000890101639F2109048160704710B5EA495E
:100750000B680122120493430B600B689400A343BF
:100760000B60801A09D003221204904204D1086859
:10077000052212041043086010BD08681043086089
:1007800010BD034600205909DB4A01290AD002297D
:100790000AD0516ADA06D20E012393400B4200D0F0
:1007A000012070471168F5E7116AF3E718B50020DA
:1007B00000900124E4033120FFF7E3FF0099491C76
:1007C00000910099A14201D00028F4D03120FFF718
:1007D000D8FF002801D0012018BD002018BDC64A4E
:1007E0001168F8239943C000084310607047C64958
:1007F0000860704710B5C04B5A68C44C224008438B
:100800001043586010BDC049403108627047BA4A71
:10081000516889088900014351607047B6484068B3
:100820000C2108407047B44A5168F02399430143B2
:1008300051607047B04A516807231B029943014336
:1008400051607047AC4A51680723DB029943C000EE
:10085000084350607047A84A002903D0517A0143E9
:1008600051727047517A814351727047A649C03125
:1008700088614008C86170479F4AD16A5304994310
:100880000143D16270479C4AD16A1F231B069943DA
:100890000143D162704710B5974BDA6A1C15A24329
:1008A0001F24E402A24302430A43DA6210BD10B5DA
:1008B000914BDA6AFF24F134A243002901D00243AC
:1008C00003E00243FF2001308243DA6210BD8A4A0E
:1008D000D16A090909010143D162704710B5864BFD
:1008E0001A6B01246404A2431F24E402A2430243BE
:1008F0000A431A6310BD01227F499204002803D0E5
:10090000086B104308637047086B90430863704797
:100910007949002220310A700A70012804D0042885
:1009200001D1052008707047012008707047784990
:100930000860704770490A6A03231B029A430A62DF
:100940000A6A02430A62704771498039C863704776
:1009500070B50446684E70686E490840716801229F
:1009600012041140020102D4850CAD1C02E0850C7A
:10097000FF3DF03D002905D07068800305D566482D
:10098000454304E06448454301E0644845437068DA
:100990000C2108406149002837D0042837D00828A6
:1009A00037D021607068F021084000095C490A5C7A
:1009B0002068D0406060726807231B021A40120A48
:1009C0008A5C0346D340A36072680723DB021A40A7
:1009D000D20A895C0246CA40E260F16A0907090F3F
:1009E0004F4A1032515C00F0BEF96061F06AFF219D
:1009F000F1310840000900074949C00E2031095A69
:100A0000284600F0B0F9206170BD2160CAE721607E
:100A1000C8E72560C6E7384A002903D05169014379
:100A2000516170475169814351617047324A0029D1
:100A300003D091690143916170479169814391614C
:100A400070472D4A002903D0D1690143D161704715
:100A5000D1698143D1617047274A002903D0916A47
:100A6000014391627047916A814391627047224AC3
:100A7000002903D0D1680143D1607047D168814318
:100A8000D16070471C4A002903D0116901431161EC
:100A9000704711698143116170471749402200284E
:100AA00003D0086B104308637047086B90430863DA
:100AB0007047174940390860704713494031C86092
:100AC00070470D4A51680901090901435160704797
:100AD000094A516807231B069943000608435060E2
:100AE00070470548426A012109060A434262426A88
:100AF0008A434262704700000010024000C0FFF8C5
:100B0000FFFFF6FEFFFF00F700004242FFFFC0F7C5
:100B10008004424200003C0800093D0000127A00B7
:100B2000E60D000101460020484A92680A42E1D0E1
:100B30000120DFE745498872DCE7FFB50024039414
:100B4000029401940094414B1A6801252D042A4314
:100B50001A606E006F101A6832400292039A521C9B
:100B60000392029A002A02D1039ABA42F3D11A6878
:100B7000920302D50122029200E00294029A012A15
:100B80003ED1334A14681026344314601468E408D4
:100B9000E4000C43146059687202114305221202EA
:100BA00011432C4A1140014329435960186831050B
:100BB0000843186048000F2109031A680240019297
:100BC000039A521C0392019A824202D0039A8A42EB
:100BD000F3D158685A68920892005A605A68022401
:100BE00022435A6058600C225868104000900398C5
:100BF000401C03900098082802D003988842F3D143
:100C0000FFBD124800684006000F73E70F4A1168E5
:100C1000F8239943C000084310606BE710B5024603
:100C2000012A01D9012010BDFFF7EBFF002A05D0F2
:100C3000401810301F2803D9022010BD4018F9E7D2
:100C4000C0B2FFF7E3FF002010BD0000001002401B
:100C500000200240FFFFC0F700E0401E0028FCD14A
:100C6000704738B504460D463348844204D101210B
:100C70000420FFF7DBFE1EE03048844204D101214E
:100C80000820FFF7D3FE16E02D48844204D101214D
:100C90001020FFF7CBFE0EE02A48844204D1012148
:100CA0002020FFF7C3FE06E02748844203D101213C
:100CB0004020FFF7BBFE69460D801020C87003205E
:100CC00088702046FFF7C9FB38BD0161704741615C
:100CD000704701617047C2684A40C2607047164D54
:100CE0000C212846FFF7BDFF144C01212046FFF7D9
:100CF000B8FF04212846FFF7E8FF144F144E0821DF
:100D00002846FFF7E8FF234601211846FFF7DFFFDB
:100D10003A461046FFF7A0FF31461846FFF7D9FFC5
:100D20001046FFF799FF01211846FFF7CEFF104646
:100D3000FFF792FFE3E7000000080140000C0140CC
:100D4000001001400014014000180140FFFF28007E
:100D5000010001007047FEE7FEE7FEE7FEE770478F
:100D600070477047704730B50B460146002020227F
:100D7000012409E00D46D5409D4205D31D4695400E
:100D8000491B2546954040191546521E002DF1DCA1
:100D900030BD0000064C0125064E05E0E36807CC97
:100DA0002B430C3C98471034B442F7D3FFF7F8F9C3
:100DB000280E0001480E000102E008C8121F08C1F9
:100DC000002AFAD170477047002001E001C1121FCC
:100DD000002AFBD170470000000000000000010263
:100DE00003040607080900000000010203040102D1
:100DF00003040607080901020406080A0C10202053
:100E0000202020202020010002000400060008000D
:100E10000A000C00100020004000800000010001CA
:100E20000001000100010000480E00010000002048
:100E300004000000B80D00014C0E00010400002069
:0C0E400004140000C80D000100449508D7
:04000005010001995C
:00000001FF
